:100000000C948D260C94BE260C94BE260C94BE2611
:100010000C94BE260C94BE260C94BE260C94BE26D0
:100020000C94BE260C94BE260C94BE260C94BE26C0
:100030000C94BE260C94BE260C94BE260C94BE26B0
:100040000C94BE260D9459110C94BE260C94BE2619
:100050000C94BE260C94BE260C94D3BC0C9485DF65
:100060000C94BE260C94099B0C94BE260C94BE26C0
:100070000C94BE260C94BE260C94BE260C94BE2670
:100080000C94BE260C94BE260C94BE260C94BE2660
:100090000C94BE260C94BE260C94BE260C94BE2650
:1000A0000C94BE260C94BE260C94BE260C94BE2640
:1000B0000C94BE260C94BE260C94BE260C94BE2630
:1000C0000C94BE260C94BE260C94BE260C94BE2620
:1000D0000C94BE260C94BE260C94BE260C94BE2610
:1000E0000C94BE26177D6E7D917EE88034823F821F
:1000F000428228D431D43BD444D44DD468D475D46E
:100100007ED456D45FD4A1DEA6DEABDEB5DEBFDE84
:1001100038DFC9DED1DED9DEE3DEEDDEF7DE06DF75
:1001200010DF38DF1ADF24DF2EDFF9FDFCFDEBFDE9
:10013000EFFDF5FD33FE00FE04FE0AFE0EFE12FE8C
:1001400018FE1CFE20FE33FE26FE2AFE2EFE084A66
:10015000D73B3BCE016E84BCBFFDC12F3D6C7431DB
:100160009ABD56833DDA3D00C77F11BED9E4BB4C32
:100170003E916BAAAABE000000803F05A84CCDB2FC
:10018000D44EB93836A9020C50B9918688083CA6DD
:10019000AAAA2ABE000000803F08000000BE9224E8
:1001A00049123EABAAAA2ABECDCCCC4C3E000000E0
:1001B00080BEABAAAAAA3E00000000BF00000080DB
:1001C0003F0000000000084178D3BB4387D1133DB6
:1001D000190E3CC3BD4282AD2B3E68EC8276BED97F
:1001E0008FE1A93E4C80EFFFBE01C4FF7F3F0000BE
:1001F00000000007634236B79BD8A71A3968561823
:10020000AEBAAB558C1D3CB7CC5763BD6DEDFD75DB
:100210003EF6177231BF000000803F000D94D76D8D
:100220000D94C1610D94F94F0D943F4A0D94B55151
:100230000D9461490D94F4510D94411C0D94314677
:100240000D94794D0D9407470D948D630D94B05125
:100250000D9478250D94AB1A0D9445650D94C860E6
:100260000D94951D0D94AB510D94F44F0D94172CD6
:100270000D94AF1A0D9427270D94194B0D94A74C8C
:100280000D94981D0D948D670D94794C0D94A65185
:100290000D94DF510D94AA1A0D9404220D94991A0D
:1002A0000D94EF4F0D947D620D94DB5F0D94082447
:1002B0000D94A1510D945F670D94CA510D947B2844
:1002C0000D948B4E0D94904C0D946E4A0D94EF1F2F
:1002D0000D9429764E414E494E495459494E46CDCA
:1002E000CCCC3D0AD7233C17B7D13877CC2B3295ED
:1002F00095E6241FB14F0A000020410000C84200CB
:10030000401C4620BCBE4CCA1B0E5AAEC59D740094
:10031000407A10F35A00A0724E18090010A5D4E8D4
:100320000000E87648170000E40B54020000CA9A67
:100330003B000000E1F505000080969800000040B9
:10034000420F000000A086010000001027000000FE
:1003500000E803000000006400000000000A000044
:100360000000000100000000002C76D888DC674FF8
:100370000823DFC1DFAE59E1B1B796E5E3E453C628
:100380003AE651997696E8E6C28426EB898C9B6220
:10039000ED407C6FFCEFBC9C9F40F2BAA56FA5F4CA
:1003A00090055A2AF75C936B6CF9676DC11BFCE0F2
:1003B000E40D47FEF520E6B500D0ED902E03009445
:1003C0003577050080841E080000204E0A000000DA
:1003D000C80C333333330F986E12831141EF8D21E4
:1003E00014893BE65516CFFEE6DB18D1844B381B4B
:1003F000F77C1D901DA4BBE424203284725E228110
:1004000000C9F124ECA1E53D2747322F4733206294
:10041000616420706172616D65746572730A005366
:100420006C6565702E2E2E00205A3A200020593A15
:10043000200042656420583A20004D6573682070A2
:100440006F696E742063616E6E6F742062652072D6
:1004500065736F6C7665640A00436F72652069335B
:100460002072656164792E00526573756D696E67DF
:10047000207072696E7400436C69636B20746F2026
:10048000726573756D652E2E2E004E6F206D6F7622
:10049000652E00456E642066696C65206C69737416
:1004A0000A00426567696E2066696C65206C697335
:1004B000740A004D3132350046696C652064656C04
:1004C000657465643A0044656C6574696F6E206696
:1004D00061696C65642C2046696C653A20006F7018
:1004E000656E206661696C65642C2046696C653AAE
:1004F00020005072696E742074696D653A20004561
:10050000256920257300436F726520693320726569
:100510006164792E004B494C4C45442E20004D31EE
:1005200031332053006F6B0042656420646F6E6549
:100530002E0020573A004265642048656174696E58
:10054000672E004361703A454D455247454E435929
:100550005F5041525345523A300A004361703A436A
:100560004153455F4C494748545F425249474854BC
:100570004E4553533A300A004361703A544F47474F
:100580004C455F4C49474854533A300A0043617028
:100590003A534F4654574152455F504F5745523A90
:1005A000300A004361703A4C4556454C494E475F0E
:1005B000444154413A310A004361703A5A5F505203
:1005C0004F42453A310A004361703A4155544F4C0D
:1005D0004556454C3A310A004361703A5052494EF3
:1005E000545F4A4F423A310A004361703A50524FC9
:1005F00047524553533A300A004361703A415554CB
:100600004F5245504F52545F54454D503A310A00B5
:100610004361703A454550524F4D3A310A004649C0
:10062000524D574152455F4E414D453A4D61726CB6
:10063000696E20312E322E30202847697468756229
:100640002920534F555243455F434F44455F555210
:100650004C3A68747470733A2F2F676974687562C6
:100660002E636F6D2F4D61726C696E4669726D7786
:100670006172652F4D61726C696E2050524F544FFC
:10068000434F4C5F56455253494F4E3A312E30201E
:100690004D414348494E455F545950453A436F7266
:1006A000652069332045585452554445525F434FA5
:1006B000554E543A3120555549443A636564653284
:1006C0006132662D343161322D343734382D396240
:1006D00031322D6335356336326633363766660A16
:1006E000002F2F200066696C616D656E743A2000E2
:1006F0007A5F70726F62653A20007A5F6D696E3A58
:100700002000795F6D696E3A2000785F6D696E3AFE
:1007100020005265706F7274696E6720656E647335
:10072000746F70207374617475730A004D313435C1
:1007300020533C696E6465783E206F7574206F6647
:100740002072616E67652028302D31290A00205AF9
:1007500000205900580020204D61783A2000205A8E
:1007600000205900580020204D696E3A20004F6E3D
:1007700020004F666600536F667420656E64737464
:100780006F70733A2000000136372603FF3C3D3876
:1007900002FF2E303E13FF4D0B0907FFFFFF1A1813
:1007A0001CFFFF0944080643FFFFFFFFFFFF206413
:1007B0003A0020693A0020703A0043290A00616239
:1007C0006C656420286D696E2074656D702000432F
:1007D0006F6C6420657874727564657320617265EE
:1007E000200023646566696E6520204445464155B6
:1007F0004C545F4B64200023646566696E6520205D
:1008000044454641554C545F4B692000236465665E
:10081000696E65202044454641554C545F4B70201D
:1008200000504944204175746F74756E6520666987
:100830006E69736865642120507574207468652042
:100840006C617374204B702C204B6920616E6420A6
:100850004B6420636F6E7374616E74732066726F85
:100860006D2062656C6F7720696E746F20436F6EC8
:1008700066696775726174696F6E2E680A00504907
:1008800044204175746F74756E65206661696C658E
:1008900064212074696D656F75740A0050494420A5
:1008A0004175746F74756E65206661696C6564214D
:1008B0002054656D706572617475726520746F6F18
:1008C00020686967680A00204B643A2000204B6961
:1008D0003A2000204B703A20000A20436C61737369
:1008E000696320504944200A002054753A200020B2
:1008F0004B753A2000206D61783A2000206D696EBA
:100900003A200020643A200020626961733A200096
:100910004F666673657473206170706C69656400FE
:100920004572723A20546F6F206661722100546FD5
:100930006F206661722066726F6D207265666572E7
:10094000656E636520706F696E740A003A20007AE4
:100950005F6D696E3A20202D3230207A5F6D6178AC
:100960003A20203230005A204F66667365742000AA
:100970004E6F2063617365206C696768740A00417B
:1009800063746976652045787472756465723A207F
:10099000003C3C3C2067636F64655F540A00203A6A
:1009A0002041465445520A00202063757272656EDC
:1009B000745F706F736974696F6E3D00203A2042F6
:1009C00045464F52450A00202063757272656E7469
:1009D0005F706F736974696F6E3D003E3E3E2067C5
:1009E000636F64655F542800556E6B6E6F776E2081
:1009F000636F6D6D616E643A2022004572726F7292
:100A00002077726974696E6720746F204545505273
:100A10004F4D210A00290A002062797465733B203A
:100A2000637263200053657474696E677320537436
:100A30006F72656420280055424C205379737465A9
:100A40006D20726573657428290A00206C6F6164DB
:100A500065642066726F6D2073746F726167652EB6
:100A60000A004D65736820002E0A0020696E6974C3
:100A700069616C697A65642E0A0A003F43616E27DA
:100A80007420656E61626C652000202863616C6370
:100A9000756C6174656429210A0020213D200045A0
:100AA0004550524F4D20435243206D69736D617420
:100AB0006368202D202873746F72656429200029D3
:100AC0000A002062797465733B2063726320002002
:100AD00073746F7265642073657474696E677320D4
:100AE000726574726965766564202800204D6172B4
:100AF0006C696E3D563339290A0028454550524FDE
:100B00004D3D00454550524F4D2076657273696FDB
:100B10006E206D69736D61746368200025697300D0
:100B200025696D20256973002569682025696D2078
:100B300025697300256964202569682025696D2071
:100B40002569730025697920256964202569682055
:100B500025696D20256973002C20002C2000203A87
:100B60002073796E635F706C616E5F706F73697410
:100B7000696F6E0A00202063757272656E745F7013
:100B80006F736974696F6E3D004E6F204C696E65BE
:100B9000204E756D626572207769746820636865A0
:100BA000636B73756D2C204C617374204C696E659A
:100BB0003A20004B494C4C45442E200053544F5092
:100BC0005045442E20005072696E74657220737413
:100BD0006F707065642064756520746F2065727233
:100BE0006F72732E20466978207468652065727272
:100BF0006F7220616E6420757365204D393939201C
:100C0000746F20726573746172742E202854656D40
:100C100070657261747572652069732072657365A1
:100C2000742E205365742069742061667465722087
:100C300072657374617274696E67290A004E6F2061
:100C4000436865636B73756D2077697468206C69A0
:100C50006E65206E756D6265722C204C6173742018
:100C60004C696E653A2000636865636B73756D202F
:100C70006D69736D617463682C204C617374204CD2
:100C8000696E653A20004C696E65204E756D62652F
:100C900072206973206E6F74204C617374204C69EC
:100CA0006E65204E756D6265722B312C204C617320
:100CB00074204C696E653A20004D313130004D335F
:100CC00031004D383420582059205A2045005344D3
:100CD0002072656164206572726F720A00446F6EE3
:100CE00065207072696E74696E672066696C650A4A
:100CF0000020496E76616C69642065787472756451
:100D000065722000000000000000000000000000EC
:100D100000005C4300005C4300005C430A20736FEA
:100D200066745F656E6473746F705F6D6178203D8B
:100D300020000A20736F66745F656E6473746F7051
:100D40005F6D696E203D20000A20706F73697469C1
:100D50006F6E5F7368696674203D2000206178695A
:100D6000733A0A20686F6D655F6F666673657420FD
:100D70003D2000466F7220003C3C3C20646F5F6267
:100D80006C6F636B696E675F6D6F76655F746F0A1A
:100D9000003E3E3E20646F5F626C6F636B696E67FE
:100DA0005F6D6F76655F746F00203A2073657475B0
:100DB000705F666F725F656E6473746F705F6F7281
:100DC0005F70726F62655F6D6F76650A00202063E9
:100DD000757272656E745F706F736974696F6E3D62
:100DE00000203A20636C65616E5F75705F616674A8
:100DF00065725F656E6473746F705F6F725F70723F
:100E00006F62655F6D6F76650A0020206375727290
:100E1000656E745F706F736974696F6E3D00646FA7
:100E20005F70726F62655F72616973652800486FF9
:100E30006D652025732573257320666972737400B0
:100E40002066697273740A005A0059005800486F8E
:100E50006D6520006465706C6F793A2000203A203F
:100E60007365745F70726F62655F6465706C6F79D3
:100E700065640A00202063757272656E745F706F1E
:100E8000736974696F6E3D002044697363726570A5
:100E9000616E63793A00326E642050726F62652031
:100EA0005A3A00203A203C3C3C2072756E5F7A5FD3
:100EB00070726F62650A00202063757272656E74CD
:100EC0005F706F736974696F6E3D00317374205089
:100ED000726F6265205A3A00203A203E3E3E2072F0
:100EE000756E5F7A5F70726F62650A0020206375AD
:100EF0007272656E745F706F736974696F6E3D00B6
:100F00003C3C3C2070726F62655F70740A00205A2E
:100F10003A200020593A200042656420583A2000C7
:100F2000203A200A00202063757272656E745F702B
:100F30006F736974696F6E3D0073746F77290A006F
:100F40002C20002C20003E3E3E2070726F62655FB8
:100F50007074280020616E642074616B65206120CC
:100F60006D6561737572656D656E742E0A006D6DC9
:100F700020746869636B2E0A00427573696E65732D
:100F8000732043617264206973200052656D6F762F
:100F9000652026206D656173757265206265640049
:100FA00052656D6F7665207368696D00506C616382
:100FB00065207368696D2026206D656173757265A3
:100FC00000506C616365207368696D20756E64659F
:100FD00072206E6F7A7A6C65004D65736820506F71
:100FE000696E74204D656173757265642061743A31
:100FF00020000A4D657368206F6E6C7920706172F5
:101000007469616C6C7920706F70756C6174656463
:101010002E0A00506C616365207368696D2026207C
:101020006D656173757265004D65617375726500FC
:101030004D6F76696E6720746F206E657874004915
:101040006E76616C6964206D617020747970652EB4
:101050000A0A003F28462961646520686569676857
:101060007420666F7220426564204C6576656C2042
:10107000436F7272656374696F6E206E6F74207057
:101080006C61757369626C652E0A0A003F43616E7C
:10109000277420616374697661746520616E6420D1
:1010A0006465616374697661746520617420746835
:1010B000652073616D652074696D652E0A0A0049AB
:1010C0006E76616C69642059206C6F636174696F1E
:1010D0006E207370656369666965642E0A0A00494B
:1010E0006E76616C69642058206C6F636174696FFF
:1010F0006E207370656369666965642E0A0A004232
:101100006F7468205820262059206C6F63617469C1
:101110006F6E73206D7573742062652073706563E4
:1011200069666965642E0A0A003F496E76616C69DA
:101130006420677269642073697A6520284A2920CF
:101140007370656369666965642028322D39292EBC
:101150000A0A003F285029686173652076616C7522
:101160006520696E76616C69642028302D36292EE1
:101170000A0A003F2856296572626F7365206C6504
:1011800076656C20697320696D706C617573696236
:101190006C652028302D34292E0A0A003F28522958
:1011A000657065746974696F6E20636F756E742005
:1011B000696E76616C69642028312B292E0A0A0039
:1011C000446F696E6720473239004572723A205584
:1011D000424C205361766500736176655F75626C81
:1011E0005F6163746976655F73746174655F616E76
:1011F000645F64697361626C656428292063616C53
:101200006C6564206D756C7469706C652074696DB3
:10121000657320696E206120726F772E0A00457217
:10122000723A2055424C20526573746F7265007299
:101230006573746F72655F75626C5F616374697604
:10124000655F73746174655F616E645F6C65617620
:101250006528292063616C6C656420746F6F206D54
:10126000616E792074696D65732E0A002073616E5A
:1012700069747920636865636B732070617373654B
:10128000642E0A00206D65736865732E0A0A004596
:101290004550524F4D2063616E20686F6C64200092
:1012A000454550524F4D206672656520666F72202D
:1012B00055424C3A20007A5F76616C75655B5D5BE8
:1012C0005D2073697A653A200073697A656F6628D4
:1012D00075626C29203A20200020746F20004D6533
:1012E0007368657320676F2066726F6D200075628A
:1012F0006C5F73746174655F726563757273696F37
:101300006E5F63686B203A0075626C5F7374617422
:10131000655F61745F696E766F636174696F6E207B
:101320003A00202073746174653A004B696C6C203C
:1013300070696E206F6E203A00202000592D417890
:101340006973204D65736820506F696E74732061F6
:10135000743A2000202000582D41786973204D6593
:10136000736820506F696E74732061743A20004D69
:101370004553485F595F444953542020004D45531D
:10138000485F585F44495354202000475249445F06
:101390004D41585F504F494E54535F5920200047EC
:1013A0005249445F4D41585F504F494E54535F5826
:1013B00020200055424C5F4D4553485F4D41585FDA
:1013C00059202028323230202D2028323529293D3D
:1013D0000055424C5F4D4553485F4D41585F582082
:1013E0002028323230202D2028323529293D005541
:1013F000424C5F4D4553485F4D494E5F5920202870
:1014000030202B203235293D0055424C5F4D45534D
:10141000485F4D494E5F5820202830202B20323520
:10142000293D007A70726F62655F7A6F66667365D8
:10143000743A200055424C206F626A6563742063E1
:101440006F756E743A2000204C6F616465642E00E5
:101450004D65736820004E6F204D657368204C6F9A
:10146000616465642E003A2000454550524F4D207E
:1014700044756D703A0A002066726F6D2063757254
:1014800072656E74206D6573682E0A005375627400
:1014900072616374696E67206D65736820696E2080
:1014A000736C6F7420003F557365203020746F207B
:1014B000003F496E76616C69642073746F72616776
:1014C0006520736C6F742E0A003F557365203020C1
:1014D000746F20003F53746F7261676520736C6F87
:1014E0007420232072657175697265642E0A003F4D
:1014F000454550524F4D2073746F72616765206E81
:101500006F7420617661696C61626C652E0A004DB2
:1015100065736820456469746F7200446F6E65205E
:1015200045646974696E67204D6573680A00446F8D
:101530006E652045646974696E67204D6573680047
:101540004D6573682045646974696E672053746FD4
:10155000707065640046696E652054756E696E67CB
:10156000204D6573680028582C5929206F757473B5
:10157000696465207072696E7461626C6520726165
:10158000646975732E0A004F6666736574206F7503
:1015900074206F6620626F756E64732E2028302071
:1015A000746F2031306D6D290A0A0000446F6E653A
:1015B0002E0A003F557365203020746F20003F498C
:1015C0006E76616C69642073746F726167652073F5
:1015D0006C6F742E0A003F454550524F4D20737476
:1015E0006F72616765206E6F7420617661696C61EE
:1015F000626C652E0A002C20592000203B205820C8
:1016000000205A2000204A20004D34323120492049
:10161000004732392049203939390A00446F6E6554
:101620002E0A003F557365203020746F20003F491B
:101630006E76616C69642073746F72616765207384
:101640006C6F742E0A003F454550524F4D20737405
:101650006F72616765206E6F7420617661696C617D
:10166000626C652E0A004732392050322066696E5E
:1016700069736865642E0A005859206F7574736920
:101680006465207072696E7461626C652072616459
:101690006975732E0A003F4572726F7220696E2061
:1016A000427573696E6573732043617264206D6562
:1016B00061737572656D656E742E0A004D616E758D
:1016C000616C6C792070726F62696E6720756E72E2
:1016D0006561636861626C65206D657368206C6F1D
:1016E000636174696F6E732E0A00292E0A0A005016
:1016F000726F62696E67204D65736820506F696E06
:10170000747320436C6F7365737420746F202800AA
:101710004D65736820696E76616C69646174656497
:101720002E2050726F62696E67206D6573682E0A95
:10173000004D657368207A65726F65642E0A0044F7
:10174000656661756C742073746F72616765207370
:101750006C6F7420302073656C65637465642E0A49
:1017600000417474656D707420746F2070726F62C4
:1017700065206F666620746865206265642E0A00C5
:101780004C6F6164696E6720746573745F70617417
:101790007465726E2076616C7565732E0A0A004955
:1017A0006E76616C696420746573745F70617474C3
:1017B00065726E2076616C75652E20282D3120743F
:1017C0006F2032290A0A004C6F636174696F6E736F
:1017D00020696E76616C6964617465642E0A0A0022
:1017E000456E74697265204D65736820696E766117
:1017F0006C6964617465642E0A0A007769746820F4
:101800004D3530322C204D3530302C204D35303197
:1018100020696E2074686174206F726465722E0A8C
:101820000A003F596F75206E65656420746F2065EE
:101830006E61626C6520796F757220454550524F1C
:101840004D20616E6420696E697469616C697A65A6
:101850002069740A005374616E6461726420446587
:1018600076696174696F6E3A20004D65616E204D36
:10187000657368204865696768743A200023206FA3
:10188000662073616D706C65733A20000A4D657354
:1018900068206F6E6C79207061727469616C6C790C
:1018A00020706F70756C617465642E0A0A005D0AA1
:1018B00000616674657220726F746174696F6E2066
:1018C0003D205B005D2020202D2D2D3E20006265F7
:1018D000666F726520726F746174696F6E203D204F
:1018E0005B00642066726F6D2033726420706F69D4
:1018F0006E743A2000642066726F6D20326E642030
:10190000706F696E743A2000642066726F6D2031CA
:10191000737420706F696E743A2000200A004420AE
:10192000636F6E7374616E743A2000726F746174C9
:10193000696F6E206D61747269783A005D0A0062A9
:10194000656420706C616E65206E6F726D616C20D5
:101950003D205B00526573656E643A20006F6B003A
:1019600067656E65726963206D6F766520646F6E62
:101970006520696E2075626C2E6C696E655F746F90
:101980005F64657374696E6174696F6E282900689D
:101990006F72697A6F6E74616C206D6F766520640A
:1019A0006F6E6520696E2075626C2E6C696E655F66
:1019B000746F5F64657374696E6174696F6E2829F2
:1019C00000766572746963616C206D6F7665206462
:1019D0006F6E6520696E2075626C2E6C696E655F36
:1019E000746F5F64657374696E6174696F6E2829C2
:1019F0000046494E414C5F4D4F564520696E20755B
:101A0000626C2E6C696E655F746F5F646573746978
:101A10006E6174696F6E2829005374617274206F4F
:101A2000662075626C2E6C696E655F746F5F6465AD
:101A30007374696E6174696F6E2829002C20656566
:101A40003D002C207A653D002C2079653D002075F5
:101A5000626C2E6C696E655F746F5F646573746928
:101A60006E6174696F6E2878653D0020746F6F2019
:101A70006C6F6E6720657874727573696F6E207015
:101A8000726576656E7465640A0020636F6C64200D
:101A9000657874727573696F6E2070726576656EA5
:101AA0007465640A00627573793A207061757365B4
:101AB0006420666F7220696E7075740A00627573B7
:101AC000793A2070617573656420666F7220757352
:101AD00065720A00627573793A2070726F6365737C
:101AE00073696E670A004D363030004B494C4C45E7
:101AF000442E20004B494C4C206361757365642073
:101B00006279204B494C4C20627574746F6E2F7053
:101B1000696E0A004B494C4C45442E20004B494C01
:101B20004C2063617573656420627920746F6F2047
:101B30006D75636820696E61637469766520746988
:101B40006D65202D2063757272656E7420636F6DF4
:101B50006D616E643A2000506C656173652072653A
:101B6000736574005052494E5445522048414C54BC
:101B70004544005072696E7465722068616C7465CA
:101B8000642E206B696C6C28292063616C6C656421
:101B9000210A000000000000000000000000003CDE
:101BA0003C3C207365745F617869735F69735F6142
:101BB000745F686F6D652800203A200A002020635A
:101BC000757272656E745F706F736974696F6E3D64
:101BD000005D203D20003E20686F6D655F6F66668A
:101BE0007365745B002A2A2A205A20484F4D4544C9
:101BF00020544F20454E4453544F5020285A5F4D97
:101C0000494E5F50524F42455F454E4453544F50EA
:101C100029202A2A2A0A003E3E3E207365745F610D
:101C20007869735F69735F61745F686F6D652800C1
:101C300000004842000048420000804000000000D0
:101C40005761726E696E673A20486F6D696E6720E2
:101C500042756D702044697669736F72203C203143
:101C60000A000202040000A0400000A040000000A2
:101C70004000005C4300005C4300005C433C3C3C93
:101C800020686F6D65617869732800203A203E20D6
:101C90004146544552207365745F617869735F698A
:101CA000735F61745F686F6D650A002020637572F1
:101CB00072656E745F706F736974696F6E3D004812
:101CC0006F6D65203220536C6F773A0A004D6F7646
:101CD0006520417761793A0A00486F6D65203120AF
:101CE000466173743A0A00FFFFFF3E3E3E20686F74
:101CF0006D656178697328003F5370656369666933
:101D0000656420582C5920636F6F7264696E61742A
:101D100065206F7574206F6620626F756E64732E18
:101D20000A003F28522965706561742076616C75E0
:101D300065206E6F7420706C61757369626C653BB1
:101D4000206D757374206265206174206C65617309
:101D50007420312E0A003F537065636966696564BB
:101D6000206E6F7A7A6C652074656D70657261742F
:101D7000757265206E6F7420706C61757369626C2A
:101D8000652E0A003F537065636966696564206665
:101D9000696C616D656E742073697A65206E6F740D
:101DA00020706C61757369626C652E0A003F537018
:101DB00065636966696564207072696D65206C652C
:101DC0006E677468206E6F7420706C6175736962E1
:101DD0006C652E0A003F537065636966696564200F
:101DE0006E6F7A7A6C652073697A65206E6F7420E5
:101DF000706C61757369626C652E0A003F53706583
:101E00006369666965642052657472616374696FA1
:101E10006E204D756C7469706C696572206E6F749C
:101E200020706C61757369626C652E0A003F5265A3
:101E30007472616374696F6E204D756C7469706C37
:101E4000696572206D7573742062652073706563B7
:101E500069666965642E0A003F5370656369666947
:101E60006564206C617965722068656967687420B3
:101E70006E6F7420706C61757369626C652E0A00F8
:101E80003F537065636966696564206265642074A8
:101E9000656D7065726174757265206E6F74207007
:101EA0006C61757369626C652E0A00436F6E6E65B6
:101EB0006374696E6720766572746963616C206C07
:101EC000696E652E002C2065793D0029202D3E206D
:101ED0002865783D002C2073793D0020436F6E6E9D
:101EE000656374696E6720776974682076657274BB
:101EF0006963616C206C696E65202873783D002CE5
:101F00002065793D0029202D3E202865783D002C54
:101F10002073793D0020436F6E6E656374696E6750
:101F2000207769746820686F72697A6F6E74616C6B
:101F3000206C696E65202873783D00446F6E6520C3
:101F40005072696D696E6700446F6E6520507269EA
:101F50006D696E6700557365722D436F6E74726F95
:101F60006C6C6564205072696D65004669786564C3
:101F7000204C656E677468205072696D652E00474D
:101F800032362048656174696E67204E6F7A7A6CCC
:101F9000652E004732362048656174696E672042BD
:101FA00065642E004C656176696E672047323600A5
:101FB0002C2079693D00202020446F696E672063E2
:101FC0006972636C652061743A202878693D004726
:101FD000323620636F6D6D616E642073746172744C
:101FE00065642E202057616974696E6720666F7280
:101FF000206865617465722873292E0A00696E2055
:102000006D6F76655F746F282920666565645F76FD
:10201000616C756520666F722058593A004C656195
:1020200076696E67204732360052656C656173656C
:1020300020627574746F6E004D6573682056616C14
:1020400069646174696F6E2053746F707065642E7B
:10205000003C3C3C20646F5F686F6D696E675F6D2C
:102060006F766528002C20002C20003E3E3E206428
:102070006F5F686F6D696E675F6D6F76652800557D
:10208000424C2041646A7573746D656E74205A0009
:102090002028656E61626C6564290A0020286469E5
:1020A0007361626C6564290A0055424C0041757485
:1020B0006F20426564204C6576656C696E673A20D6
:1020C00000204E6F7A7A6C65290A00202620416232
:1020D0006F76650020262053616D65205A2061735C
:1020E0000020262042656C6F77002028416C6967CC
:1020F0006E6564205769746800205A3A0020593A86
:102100000050726F6265204F666673657420583A9E
:10211000004649585F4D4F554E5445445F50524F0D
:1021200042450A0050726F62653A20004361727442
:10213000657369616E0A004D616368696E6520545C
:102140007970653A20003C3C3C205A5F534146453B
:102150005F484F4D494E470A005A2070726F6265C2
:10216000206F75742E206265640A005A2070726FA9
:102170006265206F75742E2062656400203A205AD3
:102180005F534146455F484F4D494E470A00202066
:1021900064657374696E6174696F6E3D005A5F5354
:1021A0004146455F484F4D494E47203E3E3E0A005E
:1021B000473238205A20466F7262696464656E0A3D
:1021C00000473238205A20466F7262696464656E37
:1021D000003C3C3C2067636F64655F4732380A000F
:1021E000203A203E2028686F6D655F616C6C207C12
:1021F0007C20686F6D655A29203E2066696E616C8F
:102200000A00202063757272656E745F706F736967
:1022100074696F6E3D00203A203E20686F6D6559ED
:102220000A00202063757272656E745F706F736947
:1022300074696F6E3D00203A203E20686F6D6558CE
:102240000A00202063757272656E745F706F736927
:1022500074696F6E3D005261697365205A2028626F
:1022600065666F726520686F6D696E672920746F8F
:1022700020003E20656E6473746F70732E656E610E
:10228000626C652874727565290A003E3E3E2067BF
:10229000636F64655F4732380A0053442070726987
:1022A0006E74696E67206279746520004E6F7420C9
:1022B0005344207072696E74696E670A0050726FC1
:1022C0007465637465642050696E0A006F6E2E0039
:1022D0006F66662E0055424C204465627567204645
:1022E0006C6167207475726E656420006D004669CC
:1022F0006C616D656E7420757365643A200053746B
:102300006174733A20002C204C6F6E6765737420E3
:102310006A6F623A2000546F74616C2074696D6555
:102320003A200053746174733A20002C204661698E
:102330006C65643A20002C2046696E697368656498
:102340003A20005072696E74733A200053746174BD
:10235000733A2000202F002042403A0020403A00EB
:1023600048656174696E6720646F6E652E00205742
:102370003A0045256920257300436F726520693353
:102380002072656164792E0006FFFFFFFF000101E6
:1023900001016265640A002C2073797374656D20F5
:1023A00073746F7070656421204865617465725F35
:1023B00049443A200048656174696E672066616926
:1023C0006C65640048656174696E67206661696C5C
:1023D00065640070012C0190012701B0012201C049
:1023E000011D01F00118011002130130020E0160FD
:1023F00002090190020401C002FF000003FA00403C
:1024000003F5008003F000D003EB002004E6007029
:1024100004E100E004DC004005D700C005D2004024
:1024200006CD00D006C8008007C3003008BE00F00B
:1024300008B900C009B400B00AAF00B00BAA00D0C0
:102440000CA500000EA000500F9B00C0109600507D
:1024500012910000148C00C0158700B0178200B0E4
:10246000197D00D01B7800001E730040206E009084
:10247000226900F024640040275F0090295A00E0A0
:102480002B5500102E500020304B0010324600E03B
:1024900033410090353C001037370070383200A0CF
:1024A000392D00B03A2800A03B2300603C1E0010EC
:1024B0003D1900903D1400103E0F00703E0A00C010
:1024C0003E0500003F0000403FFBFF803FF6FFC09D
:1024D0003FF1FF4572723A204D494E54454D502010
:1024E000424544004572723A204D494E54454D5084
:1024F000004D494E54454D502074726967676572AE
:102500006564004572723A204D415854454D502043
:10251000424544004572723A204D415854454D5051
:10252000004D415854454D5020747269676765727B
:10253000656400556E696669656420426564204C77
:102540006576656C696E67006163746976652E0AED
:1025500000696E002053797374656D2076312E30DA
:10256000312000202020202E202020004E414E002F
:102570004353563A0A0A004C43443A0A0A003A0ABC
:102580000A0020666F7220000A42656420546F7052
:102590006F677261706879205265706F7274003F66
:1025A000496E73756666696369656E74204545504A
:1025B000524F4D2073746F7261676520666F722091
:1025C00061206D657368206F66207468697320737D
:1025D000697A652E0A003F3F3F2059696B65732178
:1025E00020204E414E20696E206765745F7A5F63DC
:1025F0006F7272656374696F6E2800203E3E3E2DD7
:102600002D2D3E200029203D20002072617720677B
:1026100065745F7A5F636F7272656374696F6E2849
:1026200000473238004F7574707574204D657368BB
:10263000204D6170004F6666205072696E7465723D
:10264000204261636B75700047323920532D310091
:102650004F757470757420666F722043535600472F
:102660003239205431004F757470757420666F7262
:1026700020486F73740047323920543000556E691A
:102680006669656420426564204C6576656C696E98
:1026900067004D657368204C6576656C696E6700F0
:1026A00045646974204D6573680056616C696461A6
:1026B0007465204D657368004275696C64204D65D2
:1026C000736800556E696669656420426564204CD4
:1026D0006576656C696E67003720536176652042C8
:1026E0006564204D65736800362046696E65205428
:1026F000756E6520416C6C00473239205034205291
:10270000393939205400352056616C69646174652B
:10271000204D65736800342046696E652054756EDF
:102720006520416C6C0047323920503420523939D1
:1027300039205400332056616C6964617465204D02
:10274000657368003220536D6172742046696C6C49
:102750002D696E0031204275696C6420436F6C6492
:10276000204D657368004732380A473239205031AE
:1027700000556E696669656420426564204C657623
:10278000656C696E67004F75747075742055424CA6
:1027900020496E666F0047323920570055424C2061
:1027A000546F6F6C73004F7574707574204D657342
:1027B00068204D6170004D6573682053746F7261BD
:1027C000676500537465702D42792D5374657020D0
:1027D00055424C00446561637469766174652055A7
:1027E000424C004732392044004163746976617479
:1027F000652055424C004732392041004D616E75CD
:10280000616C6C79204275696C64204D6573680059
:1028100047323920493939390A4732392050322074
:102820004220543000507265706172650047323941
:102830002050312054007A5F70726F62653A200038
:1028400028436C69636B20546F2043616E63656C31
:1028500029004261636B20486F6D650057616974A0
:1028600020466F72204E6F7A7A6C65004731205A8D
:102870003530005F6C63645F6175746F5F626564BF
:102880005F6C657665696E67202E2E2E0028436C7E
:1028900069636B20746F206261636B290028526F3B
:1028A000746174652041646A7573742074656D7019
:1028B000290001430054454D503A004E6F7A7A6C1E
:1028C000652048656174696E67004731205A313070
:1028D0000020204E6F7A7A6C653A20006368616E42
:1028E0006765006F66207468652066696C616D6558
:1028F0006E74005761697420666F72207374617220
:1029000074005052494E54205041555345440020C4
:10291000204E6F7A7A6C653A200066696C616D654D
:102920006E7420756E6C6F61640057616974206607
:102930006F72005052494E54205041555345440047
:1029400020204E6F7A7A6C653A2000506C65617376
:102950006520776169742E2E2E0048656174696E5A
:1029600067206E6F7A7A6C65005052494E54205041
:1029700041555345440020204E6F7A7A6C653A20C9
:102980000068656174206E6F7A7A6C652E005072F3
:1029900065737320627574746F6E20746F0050528B
:1029A000494E54205041555345440020204E6F7AE3
:1029B0007A6C653A2000746F20636F6E74696E756F
:1029C000652E2E2E00616E64207072657373206216
:1029D0007574746F6E00496E736572742066696CED
:1029E000616D656E74005052494E542050415553EC
:1029F00045440020204E6F7A7A6C653A2000666963
:102A00006C616D656E74206C6F61640057616974F0
:102A100020666F72005052494E5420504155534524
:102A2000440020204E6F7A7A6C653A200066696C0B
:102A3000616D656E742065787472756465005761A8
:102A4000697420666F72005052494E5420504155AF
:102A500053454400746F20726573756D650057614E
:102A6000697420666F72207072696E7400505249EA
:102A70004E5420504155534544002E25690047329D
:102A8000392050362D00496E666F2073637265657C
:102A90006E0041646A757374204D657368204865E3
:102AA000696768740048656967687420416D6F756F
:102AB0006E740048656967687420416D6F756E7447
:102AC0000048656967687420416D6F756E740045D4
:102AD000646974204D65736800496E666F20736386
:102AE0007265656E0041646A757374204D65736824
:102AF000204865696768740046696E652054756E84
:102B00006520436C6F73657374004732392050340D
:102B100020540046696E652054756E6520416C6CCA
:102B20000047323920503420523939392054005569
:102B3000424C20546F6F6C73004732380A4732366C
:102B400020432042256920482569205000496E66AF
:102B50006F2073637265656E0056616C69646174A1
:102B60006520437573746F6D204D65736800566101
:102B70006C696461746520414253204D657368003F
:102B80004732380A4732362043204231313020481C
:102B900032323520500056616C6964617465205092
:102BA0004C41204D657368004732380A4732362061
:102BB0004320423430204831393020500055424CB7
:102BC00020546F6F6C7300473239204A2569004CDE
:102BD0006576656C204D65736800536964652050A7
:102BE0006F696E7473005369646520506F696E7409
:102BF00073005369646520506F696E7473005542A9
:102C00004C20546F6F6C7300496E666F2073637253
:102C100065656E0047726964204D657368204C6578
:102C200076656C696E6700332D506F696E74204C49
:102C30006576656C696E6700473239204A30005509
:102C4000424C20546F6F6C73004732392050332050
:102C5000543000473239205033205220432E25690A
:102C6000004D616E75616C2046696C6C2D696E005B
:102C7000473239205032204220543000536D617267
:102C8000742046696C6C2D696E00496E666F207306
:102C9000637265656E0046696C6C2D696E204D65CA
:102CA00073680046696C6C2D696E20416D6F756E9E
:102CB000740046696C6C2D696E20416D6F756E7481
:102CC0000046696C6C2D696E20416D6F756E7400E5
:102CD0004275696C64204D657368004D65736820AA
:102CE000696E76616C6964617465642E0A00496E70
:102CF000666F2073637265656E00496E76616C69FC
:102D00006461746520436C6F736573740047323976
:102D1000204900496E76616C696461746520416C7C
:102D20006C00436F6E74696E756520426564204D5A
:102D30006573680047323920503120430046696C82
:102D40006C2D696E204D657368004275696C642056
:102D5000436F6C64204D657368004732380A473210
:102D600039205031004275696C6420437573746F6B
:102D70006D204D657368004275696C642041425353
:102D8000204D657368004732380A4D313930205381
:102D90003131300A4D31303920533232350A473221
:102DA000392050310A4D3130342053300A4D3134FE
:102DB00030205330004275696C6420504C41204DE6
:102DC000657368004732380A4D313930205334304A
:102DD0000A4D31303920533139300A4732392050C9
:102DE000310A4D3130342053300A4D3134302053C4
:102DF000300055424C20546F6F6C73004361726415
:102E00002072656D6F766564004361726420696E3F
:102E100073657274656400507265686561742050F2
:102E20004C4120636F6E66005049442D4400504968
:102E3000442D44005049442D49005049442D490037
:102E40005049442D50005049442D50002002204646
:102E50006163740020022046616374002002204DEB
:102E60006178002002204D6178002002204D6178B9
:102E7000002002204D696E002002204D696E002066
:102E800002204D696E004F6666004F6E200041754E
:102E9000746F74656D700046616E20737065656453
:102EA0000046616E2073706565640046616E207334
:102EB000706565640042656400426564004E6F7A27
:102EC0007A6C65004E6F7A7A6C6500436F6E74722F
:102ED0006F6C0053746F72652073657474696E67EC
:102EE00073004265640042656400426564004E6F91
:102EF0007A7A6C65004E6F7A7A6C65004E6F7A7ADA
:102F00006C650046616E2073706565640046616E95
:102F10002073706565640046616E2073706565643A
:102F20000054656D706572617475726500565472F7
:102F30006176206D696E005654726176206D696EFF
:102F4000005654726176206D696E00566D696E0090
:102F5000566D696E00566D696E00566D617820453C
:102F600000566D6178204500566D61782045005609
:102F70006D6178205A00566D6178205A00566D6157
:102F800078205A00566D6178205900566D6178207E
:102F90005900566D6178205900566D6178205800AF
:102FA000566D6178205800566D61782058004D6F3D
:102FB00074696F6E00416D6178204500416D6178E4
:102FC000204500416D6178205A00416D6178205A9A
:102FD00000416D6178205900416D617820590041B0
:102FE0006D6178205800416D6178205800412D7442
:102FF000726176656C00412D74726176656C00417A
:103000002D7265747261637400412D726574726112
:10301000637400416363656C00416363656C004DDC
:103020006F74696F6E00203A203C3C3C20646F5FF7
:1030300070726F62655F6D6F76650A002020637540
:103040007272656E745F706F736974696F6E3D0044
:10305000203A203E3E3E20646F5F70726F62655F73
:103060006D6F76650A00202063757272656E745FFD
:10307000706F736974696F6E3D00534420636172B1
:1030800064206F6B0A006F70656E526F6F742066FC
:1030900061696C65640A00766F6C756D652E696E8A
:1030A0006974206661696C65640A00534420696E26
:1030B0006974206661696C0A006175746F25692EF8
:1030C00067004D3234004D3233202573005772694A
:1030D00074696E6720746F2066696C653A20006FB2
:1030E00070656E206661696C65642C2046696C654C
:1030F0003A20006F70656E206661696C65642C20F3
:1031000046696C653A200046696C652073656C659C
:10311000637465640A002053697A653A2000466941
:103120006C65206F70656E65643A20006F70656E27
:10313000206661696C65642C2046696C653A2000E4
:103140002066696C653A20004E6F7720002220705F
:103150006F73002220706172656E743A22005355BD
:1031600042524F5554494E452043414C4C207461C6
:10317000726765743A22004B494C4C45442E20003E
:10318000747279696E6720746F2063616C6C207350
:1031900075622D67636F64652066696C657320775F
:1031A00069746820746F6F206D616E79206C65762C
:1031B000656C732E204D4158206C6576656C2069D6
:1031C000733A004572726F723A00000021002400C9
:1031D00027002A002D003000330001010000040107
:1031E00007010A0100002200250028002B002E0004
:1031F0003100340002010000050108010B0100004C
:1032000020002300260029002C002F00320000019E
:103210000000030106010901050505050705080869
:103220000808020202020A0A080804040404010150
:103230000101010101010303030303030303040765
:1032400007070C0C0C0C0C0C0C0C020202020606FC
:103250000606060606060B0B0B0B0B0B0B0B0404EA
:1032600004070708080A0A0A0A0A0A0505010210E3
:103270002020080810204010204080020102010890
:103280000402010102040810204080804020100840
:103290000402018004020180402010080402010899
:1032A00004020101020408102040800102040810F9
:1032B0002040801020400810048004081020408026
:1032C000408000000A0B02090C0D0E0807030401E0
:1032D00000000000000000000000000000000000EE
:1032E00000000000000000000000000000001211BB
:1032F00010000000000000000000000000000000BE
:1033000000000000000000000000000000000000BD
:10331000000000000000004B494C4C45442E2000AA
:10332000202D20496E76616C696420657874727511
:10333000646572206E756D62657220210A0020201E
:10334000506C616E6E657242756666657242797424
:1033500065733A20002046726565204D656D6F7279
:10336000793A2000436F6D70696C65643A2053654B
:103370007020313620323031370A00207C204175F0
:1033800074686F723A202870786D616C696F6E2C6A
:103390002064656661756C7420636F6E6669672969
:1033A0000A00323031372D30392D31352032333A61
:1033B000333300204C61737420557064617465640C
:1033C0003A2000312E322E300A0050584D414C49DF
:1033D0004F4E0020536F667477617265205265739B
:1033E00065740A00205761746368646F67205265D2
:1033F0007365740A002042726F776E206F757420B7
:1034000052657365740A002045787465726E616C4C
:103410002052657365740A00506F77657255700AA3
:103420000073746172740A006572726F7220777231
:103430006974696E6720746F2066696C650A00455F
:103440006E6473746F707320256320256320256379
:103450002025630020503A00205A3A0020593A00B3
:1034600020583A00656E6473746F707320686974D5
:103470003A2000446F6E6520736176696E6720663E
:10348000696C652E0A004D32390020746F6F206C14
:103490006F6E6720657874727573696F6E207072D5
:1034A0006576656E7465640A0020636F6C642065E0
:1034B0007874727573696F6E2070726576656E745C
:1034C00065640A0024F4D43050C38E20C2A2401791
:1034D000828B7011127A910D816CD90AA861E10872
:1034E000C7586607615143061E4B5D05C145A704D9
:1034F0001A411104093D9803713931034036DB024A
:1035000065339102D4305402802E1D02632CEE01EB
:10351000752AC501B028A001102781018F256401FB
:103520002B244B01E0223401AC211F018D200D0121
:10353000801FFC00841EED00971DDF00B81CD20028
:10354000E61BC600201BBC00641AB200B219A8001A
:103550000A19A0006A189900D117910040178B0032
:10356000B516840031167E00B31579003A15730044
:10357000C7146F0058146A00EE13660088136300C6
:1035800025135E00C7125B006C1257001512540021
:10359000C111510070114F0021114B00D61049008C
:1035A0008D1047004610440002104200C00F40003A
:1035B000800F3E00420F3C00060F3B00CB0E380050
:1035C000930E37005C0E3500270E3400F30D3200E9
:1035D000C10D3100900D3000600D2E00320D2D0018
:1035E000050D2C00D90C2B00AE0C2900850C2900F0
:1035F0005C0C2700350C27000E0C2600E80B24007D
:10360000C40B2400A00B23007D0B23005A0B2100C8
:10361000390B2100180B2000F80A1F00D90A1E00E0
:10362000BB0A1E009D0A1D00800A1D00630A1C00C3
:10363000470A1B002C0A1B00110A1A00F7091A007E
:10364000DD091900C4091900AB0919009209170016
:103650007B091800630917004C091600360916008B
:10366000200916000A091500F5081500E0081400E5
:10367000CC081400B8081400A40814009008130023
:103680007D0812006B08130058081200460812004B
:10369000340811002308110012081100010811005C
:1036A000F0071000E0071000D0071000C00710005E
:1036B000B0070F00A107100091070E0083070F004D
:1036C00074070F0065070E0057070E0049070E002C
:1036D0003B070D002E070E0020070D0013070D00FD
:1036E00006070D00F9060C00ED060D00E0060C00C3
:1036F000D4060C00C8060C00BC060C00B0060C007A
:10370000A4060B0099060C008D060B0082060B0028
:1037100077060B006C060B0061060A0057060B00CB
:103720004C060A0042060A0038060A002E060A0065
:1037300024060A001A060A001006090007060A00F5
:10374000FD050900F4050900EB050900E205090083
:10375000D9050900D0050900C7050900BE05090003
:10376000B5050800AD050800A50509009C05080081
:10377000940508008C050800840508007C050800F5
:10378000740508006C050700650508005D05070065
:10379000560508004E0507004705070040050800CC
:1037A00038050700310507002A0507002305070033
:1037B0001C050600160507000F0507000805060092
:1037C00002050700FB040600F5040700EE040600EE
:1037D000E8040600E2040700DB040600D504060046
:1037E000CF040600C9040600C3040600BD04060099
:1037F000B7040600B1040500AC040600A6040600E8
:10380000A00405009B040600950405009004060032
:103810008A04050085040500800406007A0405007A
:1038200075040500700405006B04050066040500BE
:10383000610405005C0405005704050052040500FE
:103840004D04050048040500430405003E0404003F
:103850003A04050035040500300404002C0405007A
:1038600027040400230405001E0404001A040400B5
:1038700016040500110404000D04040009040500E9
:103880000404040000040400FC030400F803040022
:10389000F4030400F0030400EC030400E803040054
:1038A000E4030400E0030400DC030400D803040084
:1038B000D4030400D0030400CC030400C8030300B5
:1038C000C503030024F404D9201BC40C5C0E980427
:1038D000C4095F0265077101F405F900FB04B30038
:1038E00048048700C10369005803550003034500DD
:1038F000BE023A008402310053022A002902250048
:1039000004022000E4011C00C8011900AF011700E7
:10391000980114008401130071011000610110006E
:1039200051010E0043010D0036010B002B010B006D
:1039300020010B00150109000C010900030108001A
:10394000FB000800F3000800EB000700E40006009D
:10395000DE000600D8000600D2000600CC000500FC
:10396000C7000500C2000500BD000400B900040046
:10397000B5000400B1000400AD000400A90004007B
:10398000A5000300A20003009F0004009B000300A9
:1039900098000300950002009300030090000300CC
:1039A0008D0002008B0003008800020086000200E8
:1039B00084000300810002007F0002007D000200FD
:1039C0007B0002007900020077000100760002000F
:1039D0007400020072000100710002006F0002001A
:1039E0006D0001006C0002006A0001006900020025
:1039F000670001006600010065000100640002002C
:103A00006200010061000100600001005F0002002F
:103A10005D0001005C0001005B0001005A00010034
:103A20005900010058000100570001005600010034
:103A30005500010054000100530000005300010034
:103A40005200010051000100500001004F00010030
:103A50004E0000004E0001004D0001004C0001002E
:103A60004B0000004B0001004A000100490001002A
:103A70004800000048000100470001004600000027
:103A8000460001004500000045000100440001001F
:103A9000430000004300010042000000420001001A
:103AA0004100000041000100400001003F00000013
:103AB0003F0001003E0000003E0001003D0000000C
:103AC0003D0001003C0000003C0000003C00010003
:103AD0003B0000003B0001003A0000003A000100FA
:103AE00039000000390001003800000038000000F3
:103AF00038000100370000003700010036000000E8
:103B000036000000360001003500000035000000DE
:103B100035000100340000003400000034000100D2
:103B200033000000330000003300010032000000C9
:103B300032000000320001003100000031000000BE
:103B400031000100300000003000000030000100B2
:103B50002F0000002F0000002F0000002F000100A8
:103B60002E0000002E0000002E0001002D0000009D
:103B70002D0000002D0000002D0001002C00000091
:103B80002C0000002C0000002C0001002B00000085
:103B90002B0000002B0000002B0001002A00000079
:103BA0002A0000002A0000002A000100290000006D
:103BB0002900000029000000290000002900010060
:103BC0002800000028000000280000002800000055
:103BD0002800010027000000270000002700000047
:103BE000270000002700010026000000260000003A
:103BF000260000002600000026000100250000002D
:103C00002500000025000000250000002500000020
:103C10002500010024000000240000002400000012
:103C20002400000024000100230000002300000005
:103C300023000000230000002300000023000000F8
:103C400023000100220000002200000022000000EA
:103C500022000000220000002200010021000000DC
:103C600021000000210000002100000021000000D0
:103C700021000000210001002000000020000000C1
:103C800020000000200000002000000020000000B4
:103C900020000000200001001F0000001F000000A5
:103CA0001F0000001F0000001F0000001F00000098
:103CB0001F0001001E0000001E0000001E0000008A
:103CC0001E0000004D383420582059205A2045004D
:103CD0005072696E7420706175736564004D313285
:103CE0003500004D3234005072696E742061626F8D
:103CF00072746564004E6F205344206361726400E7
:103D00005072696E742066726F6D20534400537454
:103D10006F70207072696E7400526573756D6520E6
:103D20007072696E740041626F7574205072696EB2
:103D3000746572005061757365207072696E7400ED
:103D4000436F6E74726F6C005072657061726500C3
:103D500054756E6500496E666F2073637265656E9B
:103D6000004D363030204230004368616E67652078
:103D700066696C616D656E7400466C6F7700466CA9
:103D80006F7700466C6F770046616E2073706565D3
:103D9000640046616E2073706565640046616E2044
:103DA00073706565640042656400426564004E6F2F
:103DB0007A7A6C65004E6F7A7A6C6500537065652F
:103DC00064005370656564005370656564004D61FF
:103DD000696E005072656865617420504C412045E1
:103DE0006E64005072656865617420504C412042D9
:103DF0006564005072656865617420504C410050E4
:103E000072657061726500473239205031004D3162
:103E1000303920532569004D313930205325690050
:103E2000473238004275696C6420437573746F6D56
:103E3000204D657368004265642054656D700042D2
:103E400065642054656D70004265642054656D7032
:103E500000486F74656E642054656D7000486F741F
:103E6000656E642054656D7000486F74656E6420E3
:103E700054656D70004275696C64204D657368000F
:103E800056652D6A65726B0056652D6A65726B000A
:103E900056652D6A65726B00567A2D6A65726B00E5
:103EA000567A2D6A65726B0056792D6A65726B00C1
:103EB00056792D6A65726B0056792D6A65726B00B2
:103EC00056782D6A65726B0056782D6A65726B00A4
:103ED00056782D6A65726B004D6F74696F6E004580
:103EE00073746570732F6D6D004573746570732FF7
:103EF0006D6D005A73746570732F6D6D005A737415
:103F00006570732F6D6D005973746570732F6D6DCF
:103F1000005973746570732F6D6D005873746570FC
:103F2000732F6D6D005873746570732F6D6D004D38
:103F30006F74696F6E0053746570732F6D6D004AF6
:103F400065726B00416363656C65726174696F6E65
:103F50000056656C6F63697479005A204F6666730A
:103F60006574005A204F666673657400436F6E7403
:103F7000726F6C0046696C2E204469612E004669A0
:103F80006C2E204469612E004F6666004F6E200043
:103F90004520696E206D6D3300436F6E74726F6CD7
:103FA0000043616E6E6F7420656E74657220737568
:103FB000626469723A2000052E2E004D61696E0020
:103FC0002D2D2D2D2D2D2D2D2D2D2D2D2D0020295F
:103FD000202020002C20002C20002C200020292034
:103FE000202064657374696E6174696F6E3D28206A
:103FF000002C20002C20002C200020202020637585
:104000007272656E743D28200020202066706D6DF0
:104010003D00001C1F11111F00000006191803139A
:104020000C00040E1F041C000000000E1315110EDE
:1040300000001C10181705060500040A0A0A0A11D8
:10404000110E0C12120C00000000001F1511151F9C
:10405000000025753A2530327500253032753A2535
:10406000303275002D2D2D005344005A0059005850
:10407000004D36303020486F74656E6420746F6F69
:1040800020636F6C6420746F206368616E676520C5
:1040900066696C616D656E740A007C3C3E5E2B3D0A
:1040A0003F2F5B5D3B2C2A225C004C4556454C491A
:1040B0004E4700434F4D4D554E49434154494F4E95
:1040C0000044525952554E004552524F52530049E6
:1040D0004E464F004543484F00D440CF40C840C1F2
:1040E00040B340AA406F66660044454255473A00D7
:1040F000436F7265206933204F66662E00205A3A5E
:104100000020593A0020436F756E7420583A002001
:10411000453A00205A3A0020593A00583A0053656F
:104120007474696E672054726176656C20416363B4
:10413000656C65726174696F6E3A200053657474C2
:10414000696E6720526574726163742041636365B0
:104150006C65726174696F6E3A200053657474699E
:104160006E67205072696E7420416363656C65727E
:104170006174696F6E3A200053657474696E6720CC
:104180005072696E7420616E642054726176656C41
:1041900020416363656C65726174696F6E3A2000DB
:1041A0004F66660A00466164652048656967687401
:1041B0002000426564204C6576656C696E6720005E
:1041C0004661696C656420746F20656E61626C6520
:1041D00020426564204C6576656C696E670A0075DF
:1041E000626C2E73746174652E73746F726167658F
:1041F0005F736C6F74203D200055424C5F4D4553FA
:10420000485F56414C4944203D20003F557365208E
:104210003020746F20003F496E76616C69642073B2
:10422000746F7261676520736C6F742E0A003F456E
:104230004550524F4D2073746F72616765206E6FE9
:104240007420617661696C61626C652E0A004D654F
:10425000736820706F696E742063616E6E6F742076
:104260006265207265736F6C7665640A004D343246
:104270003120696E636F7272656374207061726160
:104280006D657465722075736167650A0043616EC0
:104290006E6F74206F70656E207375626469722032
:1042A00000656E7175657565696E672022006563CE
:1042B000686F3A00544845524D414C2052554E418A
:1042C00057415900546865726D616C2052756E617A
:1042D00077617900556E6C6F61642066696C616D01
:1042E000656E74004C6F61642066696C616D656E0B
:1042F00074004D61696E004732380028436C696371
:104300006B20746F206261636B290046494C3A0050
:1043100050524F3A005A4D494E3A00594D494E3A83
:1043200000584D494E3A004254454D503A004854C9
:10433000454D503A004D34323800556E6966696516
:104340006420426564204C6576656C696E67005335
:10435000657420686F6D65206F66667365747300A1
:104360004D61696E0047323800416476616E636565
:104370006420466561747572657300507265686586
:10438000617420504C4100436F6F6C646F776E0016
:1043900044697361626C65207374657070657273D3
:1043A000004D3834004C6576656C696E6720436F4C
:1043B0006E6620416374697665004D343230205357
:1043C00031004C6576656C696E6720436F6E6620C0
:1043D00064697361626C65004D3432302053300083
:1043E0004D6F766520617869730041646A757374F6
:1043F000205A2D617869004368616E67652066699F
:104400006C616D656E74004175746F206C657665C6
:10441000696E67004175746F20686F6D6500473283
:1044200038004D61696E004D6F76652058004D6F04
:1044300076652059004D6F7665205A004578747274
:1044400075646572004D6F766520302E316D6D009C
:104450004D6F766520316D6D004D6F766520313082
:104460006D6D004D6F7665206178697300457874D5
:104470007275646572004D6F7665205A004D6F76D7
:10448000652059004D6F7665205800457874727527
:10449000646572004D6F7665205A004D6F76652019
:1044A00059004D6F766520580050726570617265D5
:1044B0000046696C616D656E74004D6F74696F6E56
:1044C000004D61696E00496E697469616C697A6555
:1044D00020454550524F4D004D3530320A4D353054
:1044E0003000526573746F7265206661696C736128
:1044F0006665004C6F61642073657474696E6773E0
:1045000000416476616E636564204665617475720E
:1045100065730053746F72652073657474696E6798
:10452000730054656D7065726174757265004D61DC
:10453000696E00206D65736820736C6F7473206101
:104540007661696C61626C652E0A003F496E766126
:104550006C696420736C6F742E0A004D657368205B
:10456000736176656420696E20736C6F742000201F
:10457000736C6F743D00206D65736865735F656E65
:10458000643D004532454E443D004D657368206CE6
:104590006F616465642066726F6D20736C6F742048
:1045A0000072657365745F6265645F6C6576656CE7
:1045B0000A0048617264636F6465642044656661E3
:1045C000756C742053657474696E6773204C6F61E9
:1045D0006465640A00D0070000D007000064000092
:1045E00000881300000000FA430000FA4300004076
:1045F00040000048420000A0420000A042000048E5
:10460000440000C84220204D383531205A005A2D30
:1046100050726F6265204F666673657420286D6DF9
:10462000293A0A0020440020490020204D3330312F
:104630002050005049442073657474696E67733A62
:104640000A0020460020420020480020204D31343E
:10465000352053004D6174657269616C2068656135
:1046600074757020706172616D65746572733A0A59
:1046700000206D65736865732E0A0A004545505227
:104680004F4D2063616E20686F6C6420007A5F6F0D
:1046900066667365743A20000A4163746976652022
:1046A0004D65736820536C6F743A2000205A0020C7
:1046B000204D3432302053003A0A00205A0020594D
:1046C0000020204D323036205800486F6D65206F35
:1046D00066667365743A0A00204500205A00205926
:1046E0000020580020420020540020204D32303558
:1046F000205300416476616E6365643A20533C6DDB
:10470000696E5F66656564726174653E20543C6DD8
:10471000696E5F74726176656C5F6665656472610F
:1047200074653E20423C6D696E5F7365676D656EB2
:10473000745F74696D655F6D733E20583C6D617880
:104740005F78795F6A65726B3E205A3C6D61785F75
:104750007A5F6A65726B3E20453C6D61785F655F8C
:104760006A65726B3E0A0020540020520020204DE2
:10477000323034205000416363656C657261746946
:104780006F6E2028756E6974732F7332293A20502A
:104790003C7072696E745F616363656C3E20523C6D
:1047A000726574726163745F616363656C3E20540B
:1047B0003C74726176656C5F616363656C3E0A0090
:1047C000204500205A0020590020204D3230312051
:1047D00058004D6178696D756D20416363656C6546
:1047E000726174696F6E2028756E6974732F7332ED
:1047F000293A0A00204500205A0020590020204D67
:104800003230332058004D6178696D756D206665D2
:10481000656472617465732028756E6974732F7393
:10482000293A0A00204500205A0020590020204D36
:10483000393220580053746570732070657220758A
:104840006E69743A0A0020204D3230302044300A1C
:104850000020204D323030204400204469736162D2
:104860006C65640A0046696C616D656E74207365E1
:104870007474696E67733A0020204D3134392043D7
:10488000203B20556E69747320696E2043656C73FC
:104890006975730A002020473231202020203B20F8
:1048A000556E69747320696E206D6D0A00040000F6
:1048B00005010003000501000504000000050003D8
:1048C00000BC48B748B248AD485D0A006265642044
:1048D000706C616E65206E6F726D616C203D205B47
:1048E000002020443D002020423D004C53462052F1
:1048F0006573756C747320413D00726F74617469E7
:104900006F6E206D61747269783A005D0A006166AD
:1049100074657220726F746174696F6E203D205BE4
:10492000005D2020202D2D2D3E20006265666F72D7
:104930006520726F746174696F6E203D205B005D4D
:104940000A0062656420706C616E65206E6F726D26
:10495000616C203D205B002020443D002020423D32
:10496000004C534620526573756C747320413D00B2
:10497000436F756C64206E6F7420636F6D706C652F
:104980007465204C5346210020202066696E616CBE
:10499000203E3E3E2D2D2D3E2000202020636F72B4
:1049A00072656374696F6E3A2000292020206D655E
:1049B0006173757265643A2000292020206C6F674E
:1049C0006963616C3A2000004578747275646564AF
:1049D00020746F74616C3A2000256C642E25696D1B
:1049E00000004C6F6E67657374206A6F6220746993
:1049F0006D653A200000546F74616C207072696EAE
:104A0000742074696D653A2000436F6D706C657435
:104A100065643A20005072696E7420436F756E743D
:104A20003A20004175746F20426564204C657665BC
:104A30006C696E67004578747275646572733A20AC
:104A40003100687474703A2F2F7777772E70786DF5
:104A5000616C696F6E2E636F6D2F00436F726520FE
:104A6000693300323031372D30392D313520323332
:104A70003A333300312E322E300050584D414C49DC
:104A80004F4E005072696E74657220537461747376
:104A9000005072696E74657220496E666F005365CE
:104AA0006E736F7220496E666F0046696C20527596
:104AB0006E4F75742044697361626C65004D616965
:104AC0006E0020204E6F7A7A6C653A200042616356
:104AD0006B004D696E696D756D2054656D70206950
:104AE00073203137302E0048656174696E67206627
:104AF00061696C65640045787472756465206D6FDA
:104B0000726500526573756D65207072696E740010
:104B1000524553554D45204F5054494F4E533A003E
:104B20004732392053256900473239204C25690026
:104B30005361766520426564204D657368004C6F53
:104B4000616420426564204D657368004D656D6F3A
:104B5000727920536C6F74004D656D6F72792053BC
:104B60006C6F74004D656D6F727920536C6F7400BB
:104B7000556E696669656420426564204C6576659A
:104B80006C696E6700000000000000001F1F00003D
:104B90000000000000486F6D696E672058595A0088
:104BA000473239205034205825732059257320521C
:104BB000256900202D2D2D2D2D000000C84100005D
:104BC00087420000DC42008018430000434300801D
:104BD0006D4300008C430040A1430080B64300C0F9
:104BE000CB430000E1430040F64300C005440060B1
:104BF000104400001B4400A025440000C8410000F0
:104C000087420000DC4200801843000043430080DC
:104C10006D4300008C430040A1430080B64300C0B8
:104C2000CB430000E1430040F64300C00544006070
:104C3000104400001B4400A02544646F6E650A0008
:104C4000496E73756666696369656E742064617424
:104C5000610A004578747261706F6C6174696E6787
:104C6000206D6573682E2E2E002C79693D002C78FE
:104C7000315F693D00206F7574206F6620626F752B
:104C80006E647320696E207A5F636F7272656374FD
:104C9000696F6E5F666F725F785F6F6E5F686F726D
:104CA000697A6F6E74616C5F6D6573685F6C696E55
:104CB00065286C78303D0078316C5F690079690057
:104CC0002C2079315F693D002C2078693D00206FF0
:104CD0007574206F6620626F756E647320696E2034
:104CE0007A5F636F7272656374696F6E5F666F720D
:104CF0005F795F6F6E5F766572746963616C5F6D1B
:104D00006573685F6C696E65286C79303D00786901
:104D100000796C5F690068010E0111241FBECFEF9E
:104D2000D1E2DEBFCDBF00E00CBF15E0A0E0B2E0F5
:104D3000ECE8F4E103E00BBF02C007900D92AA3744
:104D4000B107D9F726E1AAE7B5E001C01D92AD3160
:104D5000B207E1F716E2CCE8D6E200E006C0219700
:104D60000109802FFE010F94AE89CB38D10780E076
:104D70000807A9F70F94FB6F0D94358A0C94000077
:104D80002F923F924F925F926F927F928F929F925B
:104D9000AF92BF92CF92DF92EF92FF920F931F9349
:104DA000CF93DF93CDB7DEB7C35AD1090FB6F894CE
:104DB000DEBF0FBECDBF0091C70C20E6029F800171
:104DC0001124095B144F8091B40880FF1AC0EEEAE9
:104DD000F2E484917F013FEFE31AF30A811102C0EC
:104DE000780104C00E94849AF701F3CFD7018D9116
:104DF0007D01882319F00E94849AF8CF8AE00E94EE
:104E0000849A81E090E090932B0680932A0610927A
:104E10009F0510929E058FE38093A2051092A10535
:104E20001092A00510929405109295051092960587
:104E300010929705F80180810F5F1F4F8032D1F3E8
:104E40008E34B1F4818190ED980F9A3020F08D323C
:104E500011F08B3269F43296DF0131962C91205398
:104E60002A30D0F3CD01FC01019620812032D9F304
:104E7000F093CC06E093CB067F01BFEFEB1AFB0A61
:104E800010816AE270E0C7010F94FD89009731F04C
:104E9000FC01319780818032E1F311821D3429F0C9
:104EA000143519F0173409F0CFC0F70180812FEFC6
:104EB000E21AF20A8032C9F380538A3008F0C4C083
:104EC0001093A2052091A0053091A1054AE03196EA
:104ED000429FC001439F900D1124DF0111972C9137
:104EE000022E000C330B20533109280F391F80810B
:104EF00080538A3060F33093A1052093A005DF0131
:104F000031968C918032D9F31D3449F00091CB0653
:104F100040919E0550919F0561E070E058C02E3190
:104F2000310591F03CF42731310571F02C31310518
:104F300069F70AC0253731054CF32737310524F0CE
:104F4000203A43E0340711F7B0939F05A0939E05E4
:104F50007BC0813209F445C09FEBB92EB80E89E1C0
:104F6000A82EAB1408F45EC0DF01FD0190811196FC
:104F70009032D9F3A0EDA90FAA3008F047C04F0135
:104F8000EB2CF12C670193E0D594C7949A95E1F747
:104F9000C6018C569A4F6C018B2D8770DB0102C0C5
:104FA000AA0FBB1F8A95E2F7CD01D6019C91892BF0
:104FB0008C9381149104A1F1801AC70186589A4FED
:104FC000DC018C92808181548A3188F5DF01FD01FA
:104FD00031968C918111BDCF50939F0540939E05D2
:104FE00033C01D3409F0B8CF2032310509F0B4CFF9
:104FF000F0939F05E0939E0563E270E0CF010F946C
:10500000FD89009709F1DC011C921EC0A3EDA90FD8
:10501000A23008F4B4CF9B3211F00C943640AFCFDD
:10502000812CCBCF4115510569F6AD01CBCFDF0106
:1050300031969C9190539A30D0F3CD01FC010196AA
:10504000A081A032D9F3C2CF8091A2058D3409F49A
:10505000C7C7843511F40C94A43F873411F00C9425
:1050600015408091A0059091A1058C31910509F41E
:1050700000C6B4F4843091053CF482309105DCF52F
:1050800097FF2DC00C942F408430910509F4AAC5D8
:105090004A9711F00C942F400E94189D0C942F40B9
:1050A0008A32910509F4FEC64CF48D31910509F45C
:1050B000E5C54E9709F4E6C50C942F408B35910554
:1050C00009F466C68C35910509F467C68A359105E1
:1050D00011F00C942F4010929D050C942F4080915C
:1050E0001402882311F40C942F400E947AAE0E947F
:1050F000578F0C942F4020911402222311F40C940A
:105100002F4011E0029709F010E00E947AAE82E58C
:105110000E940C9D882309F45CC10E94A69C6B012F
:105120007C014090DE085090DF086090E0087090AD
:10513000E1082091E2083091E3084091E4085091A1
:10514000E50863962CAF3DAF4EAF5FAF639780919C
:10515000F2089091F308A091F408B091F5086796D1
:105160008CAF9DAFAEAFBFAF67972091F60830917F
:10517000F7084091F8085091F9086F962CAF3DAFB1
:105180004EAF5FAF6F9720E030E0A901C701B601D5
:105190000F94B47E882309F40BC5A301920167968E
:1051A0006CAD7DAD8EAD9FAD67970F94B47E8111D0
:1051B00011C063962CAD3DAD4EAD5FAD63976F965C
:1051C0006CAD7DAD8EAD9FAD6F970F94B47E88238F
:1051D00009F4EEC420E030E0A901C701B6010F9444
:1051E000B47E881F8827881F18130BC080E090E0CA
:1051F000A0E8BFE3AB968CAF9DAFAEAFBFAFAB97B0
:105200000AC020E030E040E85FEBAB962CAF3DAF4A
:105210004EAF5FAFAB97A301920167966CAD7DADCA
:105220008EAD9FAD67970F948285A3966CAF7DAFCF
:105230008EAF9FAFA39763962CAD3DAD4EAD5FADE6
:1052400063976F966CAD7DAD8EAD9FAD6F970F94EC
:105250008285A7966CAF7DAF8EAF9FAFA797A396C1
:105260002CAD3DAD4EAD5FADA397CA01B9010F9412
:10527000197F4B015C01A7962CAD3DAD4EAD5FADE6
:10528000A797CA01B9010F94197F9B01AC01C50111
:10529000B4010F9483850F9484886B966CAF7DAFB7
:1052A0008EAF9FAF6B9720E030E040E05FE30F945C
:1052B000197F4B015C01A7019601C701B6010F944C
:1052C000197F6B017C01A5019401C501B4010F9404
:1052D000197F9B01AC01C701B6010F9482850F9421
:1052E00084889B01AC01AB966CAD7DAD8EAD9FAD5E
:1052F000AB970F94197F4B015C0167962CAD3DADC8
:105300004EAD5FAD6797C301B2010F94838520E076
:1053100030E040E05FE30F94197F6B017C01A796BA
:105320006CAD7DAD8EAD9FADA79790586B962CADB3
:105330003DAD4EAD5FAD6B970F945F869B01AC01A9
:10534000C501B4010F94197F9B01AC01C701B601DF
:105350000F948385A30192010F9482856B017C01D8
:105360006F962CAD3DAD4EAD5FAD6F9763966CAD56
:105370007DAD8EAD9FAD63970F94838520E030E0C7
:1053800040E05FE30F94197F2B013C016B962CAD3D
:105390003DAD4EAD5FAD6B97A3966CAD7DAD8EAD63
:1053A0009FADA3970F945F869B01AC01C501B4012B
:1053B0000F94197F9B01AC01C301B2010F94838547
:1053C00063962CAD3DAD4EAD5FAD63970F94828576
:1053D00014C089E40E940C9D882329F00E94A69C99
:1053E0006B017C0103C0C12CD12C76018AE40E94A0
:1053F0000C9D8823F9F00E94A69C6F966CAF7DAF40
:105400008EAF9FAF6F9720E030E0A901C701B601D2
:105410000F94B47E81111EC020E030E0A9016F9688
:105420006CAD7DAD8EAD9FAD6F970F94B47E811145
:1054300011C0BEC320E030E0A901C701B6010F943E
:10544000B47E882309F4B4C36F961CAE1DAE1EAEA5
:105450001FAE6F97D701C601B05863968CAF9DAF52
:10546000AEAFBFAF63976F962CAD3DAD4EAD5FADA8
:105470006F97505867962CAF3DAF4EAF5FAF6797B1
:105480009C01AD01BC01CD010F94197F4B015C0162
:1054900067962CAD3DAD4EAD5FAD6797CA01B901C2
:1054A0000F94197F9B01AC01C501B4010F94838552
:1054B0000F948488EB966CAF7DAF8EAF9FAFEB9768
:1054C0008091DE089091DF08A091E008B091E1089A
:1054D0006B968CAF9DAFAEAFBFAF6B97A701960138
:1054E000BC01CD010F948385AB966CAF7DAF8EAFC1
:1054F0009FAFAB972091E2083091E3084091E40818
:105500005091E508A3962CAF3DAF4EAF5FAFA39788
:105510006F962CAD3DAD4EAD5FAD6F97A3966CAD64
:105520007DAD8EAD9FADA3970F948385AF966CAF85
:105530007DAF8EAF9FAFAF978091F2089091F30847
:10554000A091F408B091F508E3968CAF9DAFAEAF93
:10555000BFAFE397AB962CAD3DAD4EAD5FADAB9716
:10556000BC01CD010F9482856B017C012091F6086E
:105570003091F7084091F8085091F908E7962CAF60
:105580003DAF4EAF5FAFE797AF962CAD3DAD4EADA3
:105590005FADAF97E7966CAD7DAD8EAD9FADE797F4
:1055A0000F9482854B015C018091E6089091E70899
:1055B000A091E808B091E908C158DF4F888399832A
:1055C000AA83BB83CF57D0409C01AD016091FA08FC
:1055D0007091FB088091FC089091FD080F948285E2
:1055E000A7966CAF7DAF8EAF9FAFA7972091EA08CB
:1055F0003091EB084091EC085091ED08CD57DF4F0A
:10560000288339834A835B83C358D0406091FE0866
:105610007091FF0880910009909101090F94828593
:10562000EF966CAF7DAF8EAF9FAFEF97A70196015E
:1056300063966CAD7DAD8EAD9FAD63970F94197F72
:105640002B013C01A501940167966CAD7DAD8EAD3B
:105650009FAD67970F94197F9B01AC01C301B20105
:105660000F9483852B013C01A501940163966CADD9
:105670007DAD8EAD9FAD63970F94197F4B015C019B
:10568000A701960167966CAD7DAD8EAD9FAD679716
:105690000F94197F9B01AC01C501B4010F94828561
:1056A000A30192010F94F6856B017C0120E030E0AC
:1056B000A9010F94B47E87FF0AC02BED3FE049ECAF
:1056C00050E4C701B6010F9483856B017C0111235F
:1056D00051F02BED3FE049EC50E4C701B6010F94C7
:1056E00082856B017C0120E030E0A901C701B60191
:1056F0000F94B47E811128C0E3962CAD3DAD4EAD24
:105700005FADE3976B966CAD7DAD8EAD9FAD6B9746
:105710000F94B47E811118C0E7962CAD3DAD4EAD0F
:105720005FADE797A3966CAD7DAD8EAD9FADA397B2
:105730000F94B47E811108C08BEDC82E8FE0D82E57
:1057400089ECE82E80E4F82EEB962CAD3DAD4EAD05
:105750005FADEB97C701B6010F94197F9B01AC01B8
:105760000F94197F4B015C01A7962CAD3DAD4EAD5A
:105770005FADA797CA01B9010F94197F9B01AC01D6
:10578000C501B4010F9483850F9484884B015C019B
:105790002FE632E143E85AE30F94B47E87FD04C25A
:1057A000C501B4010F94F8860F94CC86A1967FAF03
:1057B0006EAFA197672B31F421E030E0A1963FAFA7
:1057C0002EAFA197A196AEACBFACA197B50180E07A
:1057D00090E00F94B87E4B015C019B01AC01C701C6
:1057E000B6010F945F866B966CAF7DAF8EAF9FAFA7
:1057F0006B97A5019401A7966CAD7DAD8EAD9FAD65
:10580000A7970F945F86EB966CAF7DAF8EAF9FAF7F
:10581000EB97A5019401EF966CAD7DAD8EAD9FAD7C
:10582000EF970F945F86EF966CAF7DAF8EAF9FAF13
:10583000EF976B962CAD3DAD4EAD5FAD6B97CA014A
:10584000B9010F94197F20E030E040E05FE30F944E
:10585000197F9B01AC0160E070E080E89FE30F944A
:105860008285A7966CAF7DAF8EAF9FAFA797C158CB
:10587000DF4F288139814A815B81CF57D04029870A
:105880003A874B875C87CD57DF4F88819981AA8102
:10589000BB81C358D0408D879E87AF87B88B6091FE
:1058A000530270915402072E000C880B990B0F9431
:1058B000BA7E20910702309108024091090250916E
:1058C0000A020F94197F2AE037ED43E25CE30F945C
:1058D000197FE3966CAF7DAF8EAF9FAFE3970E94C9
:1058E00079DF9B01AC0128533F4F4F4F5F4FE79645
:1058F0002CAF3DAF4EAF5FAFE79760964FAC609770
:1059000061965FAC619762966FAC629763967FAC6D
:10591000639722242394312C09E1D02EA196AEACBA
:10592000BFACA1972A143B0409F42AC10E94CBBE44
:105930000E9479DFDC01CB01E7962CAD3DAD4EAD89
:105940005FADE797821B930BA40BB50BB7FD11C09E
:105950000E9479DF9B01AC0128533F4F4F4F5F4FAF
:10596000E7962CAF3DAF4EAF5FAFE79780E00E9468
:10597000F58ADA94DD2009F44BC0A7962CAD3DAD35
:105980004EAD5FADA79767966CAD7DAD8EAD9FAD0B
:1059900067970F94197F4B015C016B962CAD3DAD61
:1059A0004EAD5FAD6B97B201C3010F94197FA50196
:1059B00094010F9483857B018C01A7962CAD3DAD9E
:1059C0004EAD5FADA797B201C3010F94197F4B0194
:1059D0005C016B962CAD3DAD4EAD5FAD6B976796A0
:1059E0006CAD7DAD8EAD9FAD67970F94197F9B0118
:1059F000AC01C501B4010F9482852B013C01C701A4
:105A0000D80167968CAF9DAFAEAFBFAF67975BC055
:105A1000B10180E090E00F94B87E6B962CAD3DAD67
:105A20004EAD5FAD6B970F94197F4B015C010F94E6
:105A30005C866B017C01C501B4010F947A884B012F
:105A40005C01A701960163966CAD7DAD8EAD9FADF7
:105A500063970F94197F2B013C01A50194016F9668
:105A60006CAD7DAD8EAD9FAD6F970F94197F9B018F
:105A7000AC01C301B2010F9483852B013C01A50148
:105A8000940163966CAD7DAD8EAD9FAD63970F9421
:105A9000197F4B015C01A70196016F966CAD7DAD3E
:105AA0008EAD9FAD6F970F94197F9B01AC01C5011F
:105AB000B4010F94828567966CAF7DAF8EAF9FAFB8
:105AC0006797B9E1DB2E9201A301AB966CAD7DAD7A
:105AD0008EAD9FADAB970F94838569837A838B835B
